{
  "contractName": "AdvancedStorage",
  "abi": [
    {
      "constant": true,
      "inputs": [
        {
          "internalType": "uint256",
          "name": "",
          "type": "uint256"
        }
      ],
      "name": "ids",
      "outputs": [
        {
          "internalType": "uint256",
          "name": "",
          "type": "uint256"
        }
      ],
      "payable": false,
      "stateMutability": "view",
      "type": "function"
    },
    {
      "constant": false,
      "inputs": [
        {
          "internalType": "uint256",
          "name": "id",
          "type": "uint256"
        }
      ],
      "name": "add",
      "outputs": [],
      "payable": false,
      "stateMutability": "nonpayable",
      "type": "function"
    },
    {
      "constant": true,
      "inputs": [
        {
          "internalType": "uint256",
          "name": "position",
          "type": "uint256"
        }
      ],
      "name": "get",
      "outputs": [
        {
          "internalType": "uint256",
          "name": "",
          "type": "uint256"
        }
      ],
      "payable": false,
      "stateMutability": "view",
      "type": "function"
    },
    {
      "constant": true,
      "inputs": [],
      "name": "getAll",
      "outputs": [
        {
          "internalType": "uint256[]",
          "name": "",
          "type": "uint256[]"
        }
      ],
      "payable": false,
      "stateMutability": "view",
      "type": "function"
    },
    {
      "constant": true,
      "inputs": [],
      "name": "length",
      "outputs": [
        {
          "internalType": "uint256",
          "name": "",
          "type": "uint256"
        }
      ],
      "payable": false,
      "stateMutability": "view",
      "type": "function"
    }
  ],
  "bytecode": "0x608060405234801561001057600080fd5b5061022a806100206000396000f3fe608060405234801561001057600080fd5b50600436106100575760003560e01c80631003e2d21461005c5780631f7b6d321461007b57806353ed5143146100955780639507d39a146100ed578063fac333ac1461010a575b600080fd5b6100796004803603602081101561007257600080fd5b5035610127565b005b610083610159565b60408051918252519081900360200190f35b61009d61015f565b60408051602080825283518183015283519192839290830191858101910280838360005b838110156100d95781810151838201526020016100c1565b505050509050019250505060405180910390f35b6100836004803603602081101561010357600080fd5b50356101b7565b6100836004803603602081101561012057600080fd5b50356101d7565b600080546001810182559080527f290decd9548b62a8d60345a988386fc84ba6bc95484008f6362f93160ef3e5630155565b60005490565b606060008054806020026020016040519081016040528092919081815260200182805480156101ad57602002820191906000526020600020905b815481526020019060010190808311610199575b5050505050905090565b60008082815481106101c557fe5b90600052602060002001549050919050565b600081815481106101e457fe5b60009182526020909120015490508156fea265627a7a723158202dc78f1af1762d793826df8c1eb7cbc6af460bf9eac7eef8d65b91e09c6fda2064736f6c634300050c0032",
  "source": "pragma solidity ^0.5.0;\r\n\r\ncontract AdvancedStorage{\r\n    \r\n    uint[] public ids;\r\n    \r\n    function add(uint id) public {\r\n        ids.push(id);    \r\n    } \r\n    \r\n    function get(uint position) view public returns(uint){ // simple types no need to specify memory location\r\n        return ids[position];\r\n    }\r\n    \r\n    function getAll()view public returns(uint[] memory){ // complex types of returns need to specify memory location\r\n        return ids;\r\n    }\r\n    \r\n    function length()view public returns(uint){\r\n        return ids.length;\r\n    }\r\n    \r\n}",
  "sourcePath": "C:/Users/Kosala/project02/contracts/AdvancedStorage.sol",
  "compiler": {
    "name": "solc",
    "version": "0.5.12+commit.7709ece9.Emscripten.clang"
  },
  "schemaVersion": "3.0.19",
  "updatedAt": "2019-12-06T13:32:18.052Z",
  "networkType": "ethereum",
  "devdoc": {
    "methods": {}
  },
  "userdoc": {
    "methods": {}
  }
}