{
  "contractName": "Crud",
  "abi": [
    {
      "constant": true,
      "inputs": [],
      "name": "nextId",
      "outputs": [
        {
          "internalType": "uint256",
          "name": "",
          "type": "uint256"
        }
      ],
      "payable": false,
      "stateMutability": "view",
      "type": "function"
    },
    {
      "constant": true,
      "inputs": [
        {
          "internalType": "uint256",
          "name": "",
          "type": "uint256"
        }
      ],
      "name": "users",
      "outputs": [
        {
          "internalType": "uint256",
          "name": "id",
          "type": "uint256"
        },
        {
          "internalType": "string",
          "name": "name",
          "type": "string"
        }
      ],
      "payable": false,
      "stateMutability": "view",
      "type": "function"
    },
    {
      "constant": false,
      "inputs": [
        {
          "internalType": "string",
          "name": "name",
          "type": "string"
        }
      ],
      "name": "create",
      "outputs": [],
      "payable": false,
      "stateMutability": "nonpayable",
      "type": "function"
    },
    {
      "constant": true,
      "inputs": [
        {
          "internalType": "uint256",
          "name": "id",
          "type": "uint256"
        }
      ],
      "name": "read",
      "outputs": [
        {
          "internalType": "uint256",
          "name": "",
          "type": "uint256"
        },
        {
          "internalType": "string",
          "name": "",
          "type": "string"
        }
      ],
      "payable": false,
      "stateMutability": "view",
      "type": "function"
    },
    {
      "constant": false,
      "inputs": [
        {
          "internalType": "uint256",
          "name": "id",
          "type": "uint256"
        },
        {
          "internalType": "string",
          "name": "name",
          "type": "string"
        }
      ],
      "name": "update",
      "outputs": [],
      "payable": false,
      "stateMutability": "nonpayable",
      "type": "function"
    },
    {
      "constant": false,
      "inputs": [
        {
          "internalType": "uint256",
          "name": "id",
          "type": "uint256"
        }
      ],
      "name": "destroy",
      "outputs": [],
      "payable": false,
      "stateMutability": "nonpayable",
      "type": "function"
    }
  ],
  "bytecode": "0x60806040526001805534801561001457600080fd5b50610717806100246000396000f3fe608060405234801561001057600080fd5b50600436106100625760003560e01c8063365b98b21461006757806361b8ce8c146101035780639d1187701461011d578063b6a46b3b1461013c578063ed2e5a97146101e2578063f745630f146101ff575b600080fd5b6100846004803603602081101561007d57600080fd5b50356102ac565b6040518083815260200180602001828103825283818151815260200191508051906020019080838360005b838110156100c75781810151838201526020016100af565b50505050905090810190601f1680156100f45780820380516001836020036101000a031916815260200191505b50935050505060405180910390f35b61010b610361565b60408051918252519081900360200190f35b61013a6004803603602081101561013357600080fd5b5035610367565b005b61013a6004803603602081101561015257600080fd5b81019060208101813564010000000081111561016d57600080fd5b82018360208201111561017f57600080fd5b803590602001918460018302840111640100000000831117156101a157600080fd5b91908080601f0160208091040260200160405190810160405280939291908181526020018383808284376000920191909152509295506103a7945050505050565b610084600480360360208110156101f857600080fd5b503561043f565b61013a6004803603604081101561021557600080fd5b8135919081019060408101602082013564010000000081111561023757600080fd5b82018360208201111561024957600080fd5b8035906020019184600183028401116401000000008311171561026b57600080fd5b91908080601f016020809104026020016040519081016040528093929190818152602001838380828437600092019190915250929550610533945050505050565b600081815481106102b957fe5b60009182526020918290206002918202018054600180830180546040805193821615610100026000190190911695909504601f81018790048702830187019095528482529195509193919290918301828280156103575780601f1061032c57610100808354040283529160200191610357565b820191906000526020600020905b81548152906001019060200180831161033a57829003601f168201915b5050505050905082565b60015481565b600061037282610572565b90506000818154811061038157fe5b600091825260208220600290910201818155906103a16001830182610600565b50505050565b60408051808201909152600180548252602080830184815260008054938401808255908052845160029094027f290decd9548b62a8d60345a988386fc84ba6bc95484008f6362f93160ef3e56381019485559151805191959493610430937f290decd9548b62a8d60345a988386fc84ba6bc95484008f6362f93160ef3e5640192910190610647565b50506001805481019055505050565b60006060600061044e84610572565b90506000818154811061045d57fe5b9060005260206000209060020201600001546000828154811061047c57fe5b9060005260206000209060020201600101808054600181600116156101000203166002900480601f0160208091040260200160405190810160405280929190818152602001828054600181600116156101000203166002900480156105225780601f106104f757610100808354040283529160200191610522565b820191906000526020600020905b81548152906001019060200180831161050557829003601f168201915b505050505090509250925050915091565b600061053e83610572565b9050816000828154811061054e57fe5b906000526020600020906002020160010190805190602001906103a1929190610647565b6000805b6000548110156105b557826000828154811061058e57fe5b90600052602060002090600202016000015414156105ad5790506105fb565b600101610576565b506040805162461bcd60e51b81526020600482015260156024820152745573657220646f6573206e6f74206578697374202160581b604482015290519081900360640190fd5b919050565b50805460018160011615610100020316600290046000825580601f106106265750610644565b601f01602090049060005260206000209081019061064491906106c5565b50565b828054600181600116156101000203166002900490600052602060002090601f016020900481019282601f1061068857805160ff19168380011785556106b5565b828001600101855582156106b5579182015b828111156106b557825182559160200191906001019061069a565b506106c19291506106c5565b5090565b6106df91905b808211156106c157600081556001016106cb565b9056fea265627a7a723158209f1e24221c11549d9dc65384de959672891f4298e66ab775df9b7b788855349c64736f6c634300050c0032",
  "source": "pragma solidity ^0.5.0;\r\n\r\ncontract Crud{\r\n    \r\n    struct User {\r\n        uint id;\r\n        string name;\r\n    }\r\n    \r\n    User[] public users;\r\n    uint public nextId=1;\r\n    \r\n    \r\n    function create(string memory name) public {\r\n        users.push(User(nextId, name));\r\n        nextId++;\r\n     }\r\n    \r\n    \r\n    function read(uint id) view public returns(uint, string memory){ // string is a complex type\r\n        uint k = find(id);\r\n        return(users[k].id, users[k].name);\r\n    }\r\n    \r\n    \r\n    function update(uint id, string memory name) public{\r\n        uint k=find(id);\r\n        users[k].name = name;\r\n    }\r\n    \r\n    \r\n    function destroy(uint id) public {\r\n        uint k = find(id);\r\n        delete users[k];\r\n    }\r\n    \r\n    \r\n    //utility function to find the index of user\r\n    function find(uint id)view internal returns(uint){\r\n        \r\n        for(uint i =0; i < users.length; i++){\r\n            if(users[i].id == id){\r\n                return i; // return possition\r\n            }\r\n        }\r\n        revert('User does not exist !'); // state change is cancelled if id does not exist\r\n        \r\n    }\r\n    \r\n    \r\n}",
  "sourcePath": "C:/Users/Kosala/project02/contracts/Crud.sol",
  "compiler": {
    "name": "solc",
    "version": "0.5.12+commit.7709ece9.Emscripten.clang"
  },
  "schemaVersion": "3.0.19",
  "updatedAt": "2019-12-06T13:32:18.274Z",
  "networkType": "ethereum",
  "devdoc": {
    "methods": {}
  },
  "userdoc": {
    "methods": {}
  }
}