{
  "contractName": "HelloWorld",
  "abi": [
    {
      "constant": true,
      "inputs": [],
      "name": "hello",
      "outputs": [
        {
          "internalType": "string",
          "name": "",
          "type": "string"
        }
      ],
      "payable": false,
      "stateMutability": "pure",
      "type": "function"
    }
  ],
  "bytecode": "0x608060405234801561001057600080fd5b50610111806100206000396000f3fe6080604052348015600f57600080fd5b506004361060285760003560e01c806319ff1d2114602d575b600080fd5b603360a5565b6040805160208082528351818301528351919283929083019185019080838360005b83811015606b5781810151838201526020016055565b50505050905090810190601f16801560975780820380516001836020036101000a031916815260200191505b509250505060405180910390f35b60408051808201909152601881527f4869204b6f73616c612c20486f772061726520796f75203f000000000000000060208201529056fea265627a7a72315820fb6db53035762f85315177e179ecdfcc577f37d90e86065074828bba258f969364736f6c634300050c0032",
  "source": "pragma solidity ^0.5.0;\r\n\r\ncontract HelloWorld{\r\n\r\n    function hello() pure public returns(string memory) {\r\n        return 'Hi Kosala, How are you ?';\r\n    }\r\n    \r\n}\r\n",
  "sourcePath": "C:/Users/Kosala/project02/contracts/HelloWorld.sol",
  "compiler": {
    "name": "solc",
    "version": "0.5.12+commit.7709ece9.Emscripten.clang"
  },
  "schemaVersion": "3.0.19",
  "updatedAt": "2019-12-06T13:32:17.659Z",
  "networkType": "ethereum",
  "devdoc": {
    "methods": {}
  },
  "userdoc": {
    "methods": {}
  }
}